{
  "_format": "hh-sol-artifact-1",
  "contractName": "TokenizationManager",
  "sourceName": "contracts/TokenizationManager.sol",
  "abi": [
    {
      "inputs": [
        {
          "internalType": "address",
          "name": "propertyDeedAddress",
          "type": "address"
        }
      ],
      "stateMutability": "nonpayable",
      "type": "constructor"
    },
    {
      "anonymous": false,
      "inputs": [
        {
          "indexed": false,
          "internalType": "uint256",
          "name": "propertyId",
          "type": "uint256"
        },
        {
          "indexed": false,
          "internalType": "uint256",
          "name": "pricePerFraction",
          "type": "uint256"
        }
      ],
      "name": "FractionsForSale",
      "type": "event"
    },
    {
      "anonymous": false,
      "inputs": [
        {
          "indexed": false,
          "internalType": "uint256",
          "name": "propertyId",
          "type": "uint256"
        },
        {
          "indexed": false,
          "internalType": "address",
          "name": "buyer",
          "type": "address"
        },
        {
          "indexed": false,
          "internalType": "uint256",
          "name": "numberOfFractions",
          "type": "uint256"
        }
      ],
      "name": "FractionsPurchased",
      "type": "event"
    },
    {
      "anonymous": false,
      "inputs": [
        {
          "indexed": true,
          "internalType": "address",
          "name": "previousOwner",
          "type": "address"
        },
        {
          "indexed": true,
          "internalType": "address",
          "name": "newOwner",
          "type": "address"
        }
      ],
      "name": "OwnershipTransferred",
      "type": "event"
    },
    {
      "anonymous": false,
      "inputs": [
        {
          "indexed": false,
          "internalType": "uint256",
          "name": "propertyId",
          "type": "uint256"
        },
        {
          "indexed": false,
          "internalType": "address",
          "name": "fractionContract",
          "type": "address"
        }
      ],
      "name": "PropertyTokenized",
      "type": "event"
    },
    {
      "inputs": [
        {
          "internalType": "uint256",
          "name": "propertyId",
          "type": "uint256"
        },
        {
          "internalType": "uint256",
          "name": "numberOfFractions",
          "type": "uint256"
        }
      ],
      "name": "buyFractions",
      "outputs": [],
      "stateMutability": "payable",
      "type": "function"
    },
    {
      "inputs": [],
      "name": "owner",
      "outputs": [
        {
          "internalType": "address",
          "name": "",
          "type": "address"
        }
      ],
      "stateMutability": "view",
      "type": "function"
    },
    {
      "inputs": [
        {
          "internalType": "uint256",
          "name": "",
          "type": "uint256"
        }
      ],
      "name": "properties",
      "outputs": [
        {
          "internalType": "contract PropertyFractions",
          "name": "fractionContract",
          "type": "address"
        },
        {
          "internalType": "uint256",
          "name": "pricePerFraction",
          "type": "uint256"
        },
        {
          "internalType": "bool",
          "name": "forSale",
          "type": "bool"
        }
      ],
      "stateMutability": "view",
      "type": "function"
    },
    {
      "inputs": [],
      "name": "propertyDeed",
      "outputs": [
        {
          "internalType": "contract PropertyDeed",
          "name": "",
          "type": "address"
        }
      ],
      "stateMutability": "view",
      "type": "function"
    },
    {
      "inputs": [],
      "name": "renounceOwnership",
      "outputs": [],
      "stateMutability": "nonpayable",
      "type": "function"
    },
    {
      "inputs": [
        {
          "internalType": "uint256",
          "name": "propertyId",
          "type": "uint256"
        },
        {
          "internalType": "uint256",
          "name": "pricePerFractionInWei",
          "type": "uint256"
        }
      ],
      "name": "startDistribution",
      "outputs": [],
      "stateMutability": "nonpayable",
      "type": "function"
    },
    {
      "inputs": [
        {
          "internalType": "string",
          "name": "tokenURI",
          "type": "string"
        },
        {
          "internalType": "string",
          "name": "fractionName",
          "type": "string"
        },
        {
          "internalType": "string",
          "name": "fractionSymbol",
          "type": "string"
        },
        {
          "internalType": "uint256",
          "name": "totalFractions",
          "type": "uint256"
        }
      ],
      "name": "tokenizeProperty",
      "outputs": [],
      "stateMutability": "nonpayable",
      "type": "function"
    },
    {
      "inputs": [
        {
          "internalType": "address",
          "name": "newOwner",
          "type": "address"
        }
      ],
      "name": "transferOwnership",
      "outputs": [],
      "stateMutability": "nonpayable",
      "type": "function"
    }
  ],
  "bytecode": "0x60806040523480156200001157600080fd5b50604051620038a0380380620038a08339818101604052810190620000379190620001d5565b620000576200004b6200009f60201b60201c565b620000a760201b60201c565b80600160006101000a81548173ffffffffffffffffffffffffffffffffffffffff021916908373ffffffffffffffffffffffffffffffffffffffff1602179055505062000207565b600033905090565b60008060009054906101000a900473ffffffffffffffffffffffffffffffffffffffff169050816000806101000a81548173ffffffffffffffffffffffffffffffffffffffff021916908373ffffffffffffffffffffffffffffffffffffffff1602179055508173ffffffffffffffffffffffffffffffffffffffff168173ffffffffffffffffffffffffffffffffffffffff167f8be0079c531659141344cd1fd0a4f28419497f9722a3daafe3b4186f6b6457e060405160405180910390a35050565b600080fd5b600073ffffffffffffffffffffffffffffffffffffffff82169050919050565b60006200019d8262000170565b9050919050565b620001af8162000190565b8114620001bb57600080fd5b50565b600081519050620001cf81620001a4565b92915050565b600060208284031215620001ee57620001ed6200016b565b5b6000620001fe84828501620001be565b91505092915050565b61368980620002176000396000f3fe608060405260043610620000865760003560e01c8063ea3702761162000055578063ea3702761462000133578063f2fde38b1462000153578063f6d02b3a1462000181578063f7b1080814620001af5762000086565b80632e4da132146200008b578063359cd67b14620000b9578063715018a614620000e95780638da5cb5b1462000103575b600080fd5b3480156200009857600080fd5b50620000b76004803603810190620000b19190620009aa565b620001f5565b005b348015620000c657600080fd5b50620000d162000312565b604051620000e0919062000a7c565b60405180910390f35b348015620000f657600080fd5b506200010162000338565b005b3480156200011057600080fd5b506200011b62000350565b6040516200012a919062000abe565b60405180910390f35b6200015160048036038101906200014b9190620009aa565b62000379565b005b3480156200016057600080fd5b506200017f600480360381019062000179919062000b0c565b62000524565b005b3480156200018e57600080fd5b50620001ad6004803603810190620001a7919062000ca0565b620005ae565b005b348015620001bc57600080fd5b50620001db6004803603810190620001d5919062000d6f565b620007a5565b604051620001ec9392919062000df4565b60405180910390f35b620001ff620007fc565b6000600260008481526020019081526020016000209050600073ffffffffffffffffffffffffffffffffffffffff168160000160009054906101000a900473ffffffffffffffffffffffffffffffffffffffff1673ffffffffffffffffffffffffffffffffffffffff1603620002ac576040517f08c379a0000000000000000000000000000000000000000000000000000000008152600401620002a39062000e92565b60405180910390fd5b81816001018190555060018160020160006101000a81548160ff0219169083151502179055507feb6a9e4c811b21d8fec014482fb70ac3b4d8acc12653a45a989655df28cdf81683836040516200030592919062000eb4565b60405180910390a1505050565b600160009054906101000a900473ffffffffffffffffffffffffffffffffffffffff1681565b62000342620007fc565b6200034e600062000881565b565b60008060009054906101000a900473ffffffffffffffffffffffffffffffffffffffff16905090565b60006002600084815260200190815260200160002090508060020160009054906101000a900460ff16620003e4576040517f08c379a0000000000000000000000000000000000000000000000000000000008152600401620003db9062000f31565b60405180910390fd5b806001015482620003f6919062000f82565b34146200043a576040517f08c379a000000000000000000000000000000000000000000000000000000000815260040162000431906200101d565b60405180910390fd5b8060000160009054906101000a900473ffffffffffffffffffffffffffffffffffffffff1673ffffffffffffffffffffffffffffffffffffffff1663a9059cbb33846040518363ffffffff1660e01b81526004016200049b9291906200103f565b6020604051808303816000875af1158015620004bb573d6000803e3d6000fd5b505050506040513d601f19601f82011682018060405250810190620004e191906200109d565b507f9fe8b45159f072ab2728214d3b5a718af61a0aa785052b75e4ef196f85b2f8ca8333846040516200051793929190620010cf565b60405180910390a1505050565b6200052e620007fc565b600073ffffffffffffffffffffffffffffffffffffffff168173ffffffffffffffffffffffffffffffffffffffff1603620005a0576040517f08c379a0000000000000000000000000000000000000000000000000000000008152600401620005979062001182565b60405180910390fd5b620005ab8162000881565b50565b620005b8620007fc565b6000600160009054906101000a900473ffffffffffffffffffffffffffffffffffffffff1673ffffffffffffffffffffffffffffffffffffffff1663177dc17f30876040518363ffffffff1660e01b8152600401620006199291906200121c565b6020604051808303816000875af115801562000639573d6000803e3d6000fd5b505050506040513d601f19601f820116820180604052508101906200065f919062001267565b90506000848484308560405162000676906200094d565b6200068695949392919062001299565b604051809103906000f080158015620006a3573d6000803e3d6000fd5b50905060405180606001604052808273ffffffffffffffffffffffffffffffffffffffff16815260200160008152602001600015158152506002600084815260200190815260200160002060008201518160000160006101000a81548173ffffffffffffffffffffffffffffffffffffffff021916908373ffffffffffffffffffffffffffffffffffffffff1602179055506020820151816001015560408201518160020160006101000a81548160ff0219169083151502179055509050507f3ace323e7b744e3a97fc482a6baee257ca9c317abdc4d43a95305c596f50b11e82826040516200079592919062001304565b60405180910390a1505050505050565b60026020528060005260406000206000915090508060000160009054906101000a900473ffffffffffffffffffffffffffffffffffffffff16908060010154908060020160009054906101000a900460ff16905083565b6200080662000945565b73ffffffffffffffffffffffffffffffffffffffff166200082662000350565b73ffffffffffffffffffffffffffffffffffffffff16146200087f576040517f08c379a0000000000000000000000000000000000000000000000000000000008152600401620008769062001381565b60405180910390fd5b565b60008060009054906101000a900473ffffffffffffffffffffffffffffffffffffffff169050816000806101000a81548173ffffffffffffffffffffffffffffffffffffffff021916908373ffffffffffffffffffffffffffffffffffffffff1602179055508173ffffffffffffffffffffffffffffffffffffffff168173ffffffffffffffffffffffffffffffffffffffff167f8be0079c531659141344cd1fd0a4f28419497f9722a3daafe3b4186f6b6457e060405160405180910390a35050565b600033905090565b6122b080620013a483390190565b6000604051905090565b600080fd5b600080fd5b6000819050919050565b62000984816200096f565b81146200099057600080fd5b50565b600081359050620009a48162000979565b92915050565b60008060408385031215620009c457620009c362000965565b5b6000620009d48582860162000993565b9250506020620009e78582860162000993565b9150509250929050565b600073ffffffffffffffffffffffffffffffffffffffff82169050919050565b6000819050919050565b600062000a3c62000a3662000a3084620009f1565b62000a11565b620009f1565b9050919050565b600062000a508262000a1b565b9050919050565b600062000a648262000a43565b9050919050565b62000a768162000a57565b82525050565b600060208201905062000a93600083018462000a6b565b92915050565b600062000aa682620009f1565b9050919050565b62000ab88162000a99565b82525050565b600060208201905062000ad5600083018462000aad565b92915050565b62000ae68162000a99565b811462000af257600080fd5b50565b60008135905062000b068162000adb565b92915050565b60006020828403121562000b255762000b2462000965565b5b600062000b358482850162000af5565b91505092915050565b600080fd5b600080fd5b6000601f19601f8301169050919050565b7f4e487b7100000000000000000000000000000000000000000000000000000000600052604160045260246000fd5b62000b938262000b48565b810181811067ffffffffffffffff8211171562000bb55762000bb462000b59565b5b80604052505050565b600062000bca6200095b565b905062000bd8828262000b88565b919050565b600067ffffffffffffffff82111562000bfb5762000bfa62000b59565b5b62000c068262000b48565b9050602081019050919050565b82818337600083830152505050565b600062000c3962000c338462000bdd565b62000bbe565b90508281526020810184848401111562000c585762000c5762000b43565b5b62000c6584828562000c13565b509392505050565b600082601f83011262000c855762000c8462000b3e565b5b813562000c9784826020860162000c22565b91505092915050565b6000806000806080858703121562000cbd5762000cbc62000965565b5b600085013567ffffffffffffffff81111562000cde5762000cdd6200096a565b5b62000cec8782880162000c6d565b945050602085013567ffffffffffffffff81111562000d105762000d0f6200096a565b5b62000d1e8782880162000c6d565b935050604085013567ffffffffffffffff81111562000d425762000d416200096a565b5b62000d508782880162000c6d565b925050606062000d638782880162000993565b91505092959194509250565b60006020828403121562000d885762000d8762000965565b5b600062000d988482850162000993565b91505092915050565b600062000dae8262000a43565b9050919050565b62000dc08162000da1565b82525050565b62000dd1816200096f565b82525050565b60008115159050919050565b62000dee8162000dd7565b82525050565b600060608201905062000e0b600083018662000db5565b62000e1a602083018562000dc6565b62000e29604083018462000de3565b949350505050565b600082825260208201905092915050565b7f50726f7065727479206e6f7420746f6b656e697a656400000000000000000000600082015250565b600062000e7a60168362000e31565b915062000e878262000e42565b602082019050919050565b6000602082019050818103600083015262000ead8162000e6b565b9050919050565b600060408201905062000ecb600083018562000dc6565b62000eda602083018462000dc6565b9392505050565b7f4672616374696f6e73206e6f7420666f722073616c6500000000000000000000600082015250565b600062000f1960168362000e31565b915062000f268262000ee1565b602082019050919050565b6000602082019050818103600083015262000f4c8162000f0a565b9050919050565b7f4e487b7100000000000000000000000000000000000000000000000000000000600052601160045260246000fd5b600062000f8f826200096f565b915062000f9c836200096f565b925082820262000fac816200096f565b9150828204841483151762000fc65762000fc562000f53565b5b5092915050565b7f496e636f7272656374204554482073656e740000000000000000000000000000600082015250565b60006200100560128362000e31565b9150620010128262000fcd565b602082019050919050565b60006020820190508181036000830152620010388162000ff6565b9050919050565b600060408201905062001056600083018562000aad565b62001065602083018462000dc6565b9392505050565b620010778162000dd7565b81146200108357600080fd5b50565b60008151905062001097816200106c565b92915050565b600060208284031215620010b657620010b562000965565b5b6000620010c68482850162001086565b91505092915050565b6000606082019050620010e6600083018662000dc6565b620010f5602083018562000aad565b62001104604083018462000dc6565b949350505050565b7f4f776e61626c653a206e6577206f776e657220697320746865207a65726f206160008201527f6464726573730000000000000000000000000000000000000000000000000000602082015250565b60006200116a60268362000e31565b915062001177826200110c565b604082019050919050565b600060208201905081810360008301526200119d816200115b565b9050919050565b600081519050919050565b60005b83811015620011cf578082015181840152602081019050620011b2565b60008484015250505050565b6000620011e882620011a4565b620011f4818562000e31565b935062001206818560208601620011af565b620012118162000b48565b840191505092915050565b600060408201905062001233600083018562000aad565b8181036020830152620012478184620011db565b90509392505050565b600081519050620012618162000979565b92915050565b60006020828403121562001280576200127f62000965565b5b6000620012908482850162001250565b91505092915050565b600060a0820190508181036000830152620012b58188620011db565b90508181036020830152620012cb8187620011db565b9050620012dc604083018662000dc6565b620012eb606083018562000aad565b620012fa608083018462000dc6565b9695505050505050565b60006040820190506200131b600083018562000dc6565b6200132a602083018462000aad565b9392505050565b7f4f776e61626c653a2063616c6c6572206973206e6f7420746865206f776e6572600082015250565b60006200136960208362000e31565b9150620013768262001331565b602082019050919050565b600060208201905081810360008301526200139c816200135a565b905091905056fe60806040523480156200001157600080fd5b50604051620022b0380380620022b083398181016040528101906200003791906200067d565b848481600390816200004a919062000984565b5080600490816200005c919062000984565b5050506200007f62000073620000b460201b60201c565b620000bc60201b60201c565b6200009182846200018260201b60201c565b80600681905550620000a982620002ef60201b60201c565b505050505062000c90565b600033905090565b6000600560009054906101000a900473ffffffffffffffffffffffffffffffffffffffff16905081600560006101000a81548173ffffffffffffffffffffffffffffffffffffffff021916908373ffffffffffffffffffffffffffffffffffffffff1602179055508173ffffffffffffffffffffffffffffffffffffffff168173ffffffffffffffffffffffffffffffffffffffff167f8be0079c531659141344cd1fd0a4f28419497f9722a3daafe3b4186f6b6457e060405160405180910390a35050565b600073ffffffffffffffffffffffffffffffffffffffff168273ffffffffffffffffffffffffffffffffffffffff1603620001f4576040517f08c379a0000000000000000000000000000000000000000000000000000000008152600401620001eb9062000acc565b60405180910390fd5b62000208600083836200038560201b60201c565b80600260008282546200021c919062000b1d565b92505081905550806000808473ffffffffffffffffffffffffffffffffffffffff1673ffffffffffffffffffffffffffffffffffffffff168152602001908152602001600020600082825401925050819055508173ffffffffffffffffffffffffffffffffffffffff16600073ffffffffffffffffffffffffffffffffffffffff167fddf252ad1be2c89b69c2b068fc378daa952ba7f163c4a11628f55a4df523b3ef83604051620002cf919062000b69565b60405180910390a3620002eb600083836200038a60201b60201c565b5050565b620002ff6200038f60201b60201c565b600073ffffffffffffffffffffffffffffffffffffffff168173ffffffffffffffffffffffffffffffffffffffff160362000371576040517f08c379a0000000000000000000000000000000000000000000000000000000008152600401620003689062000bfc565b60405180910390fd5b6200038281620000bc60201b60201c565b50565b505050565b505050565b6200039f620000b460201b60201c565b73ffffffffffffffffffffffffffffffffffffffff16620003c56200042060201b60201c565b73ffffffffffffffffffffffffffffffffffffffff16146200041e576040517f08c379a0000000000000000000000000000000000000000000000000000000008152600401620004159062000c6e565b60405180910390fd5b565b6000600560009054906101000a900473ffffffffffffffffffffffffffffffffffffffff16905090565b6000604051905090565b600080fd5b600080fd5b600080fd5b600080fd5b6000601f19601f8301169050919050565b7f4e487b7100000000000000000000000000000000000000000000000000000000600052604160045260246000fd5b620004b38262000468565b810181811067ffffffffffffffff82111715620004d557620004d462000479565b5b80604052505050565b6000620004ea6200044a565b9050620004f88282620004a8565b919050565b600067ffffffffffffffff8211156200051b576200051a62000479565b5b620005268262000468565b9050602081019050919050565b60005b838110156200055357808201518184015260208101905062000536565b60008484015250505050565b6000620005766200057084620004fd565b620004de565b90508281526020810184848401111562000595576200059462000463565b5b620005a284828562000533565b509392505050565b600082601f830112620005c257620005c16200045e565b5b8151620005d48482602086016200055f565b91505092915050565b6000819050919050565b620005f281620005dd565b8114620005fe57600080fd5b50565b6000815190506200061281620005e7565b92915050565b600073ffffffffffffffffffffffffffffffffffffffff82169050919050565b6000620006458262000618565b9050919050565b620006578162000638565b81146200066357600080fd5b50565b60008151905062000677816200064c565b92915050565b600080600080600060a086880312156200069c576200069b62000454565b5b600086015167ffffffffffffffff811115620006bd57620006bc62000459565b5b620006cb88828901620005aa565b955050602086015167ffffffffffffffff811115620006ef57620006ee62000459565b5b620006fd88828901620005aa565b9450506040620007108882890162000601565b9350506060620007238882890162000666565b9250506080620007368882890162000601565b9150509295509295909350565b600081519050919050565b7f4e487b7100000000000000000000000000000000000000000000000000000000600052602260045260246000fd5b600060028204905060018216806200079657607f821691505b602082108103620007ac57620007ab6200074e565b5b50919050565b60008190508160005260206000209050919050565b60006020601f8301049050919050565b600082821b905092915050565b600060088302620008167fffffffffffffffffffffffffffffffffffffffffffffffffffffffffffffffff82620007d7565b620008228683620007d7565b95508019841693508086168417925050509392505050565b6000819050919050565b6000620008656200085f6200085984620005dd565b6200083a565b620005dd565b9050919050565b6000819050919050565b620008818362000844565b6200089962000890826200086c565b848454620007e4565b825550505050565b600090565b620008b0620008a1565b620008bd81848462000876565b505050565b5b81811015620008e557620008d9600082620008a6565b600181019050620008c3565b5050565b601f8211156200093457620008fe81620007b2565b6200090984620007c7565b8101602085101562000919578190505b620009316200092885620007c7565b830182620008c2565b50505b505050565b600082821c905092915050565b6000620009596000198460080262000939565b1980831691505092915050565b600062000974838362000946565b9150826002028217905092915050565b6200098f8262000743565b67ffffffffffffffff811115620009ab57620009aa62000479565b5b620009b782546200077d565b620009c4828285620008e9565b600060209050601f831160018114620009fc5760008415620009e7578287015190505b620009f3858262000966565b86555062000a63565b601f19841662000a0c86620007b2565b60005b8281101562000a365784890151825560018201915060208501945060208101905062000a0f565b8683101562000a56578489015162000a52601f89168262000946565b8355505b6001600288020188555050505b505050505050565b600082825260208201905092915050565b7f45524332303a206d696e7420746f20746865207a65726f206164647265737300600082015250565b600062000ab4601f8362000a6b565b915062000ac18262000a7c565b602082019050919050565b6000602082019050818103600083015262000ae78162000aa5565b9050919050565b7f4e487b7100000000000000000000000000000000000000000000000000000000600052601160045260246000fd5b600062000b2a82620005dd565b915062000b3783620005dd565b925082820190508082111562000b525762000b5162000aee565b5b92915050565b62000b6381620005dd565b82525050565b600060208201905062000b80600083018462000b58565b92915050565b7f4f776e61626c653a206e6577206f776e657220697320746865207a65726f206160008201527f6464726573730000000000000000000000000000000000000000000000000000602082015250565b600062000be460268362000a6b565b915062000bf18262000b86565b604082019050919050565b6000602082019050818103600083015262000c178162000bd5565b9050919050565b7f4f776e61626c653a2063616c6c6572206973206e6f7420746865206f776e6572600082015250565b600062000c5660208362000a6b565b915062000c638262000c1e565b602082019050919050565b6000602082019050818103600083015262000c898162000c47565b9050919050565b6116108062000ca06000396000f3fe608060405234801561001057600080fd5b50600436106100f55760003560e01c8063715018a611610097578063a9059cbb11610066578063a9059cbb1461028a578063dd62ed3e146102ba578063ee7a3b8e146102ea578063f2fde38b14610308576100f5565b8063715018a6146102145780638da5cb5b1461021e57806395d89b411461023c578063a457c2d71461025a576100f5565b806323b872dd116100d357806323b872dd14610166578063313ce5671461019657806339509351146101b457806370a08231146101e4576100f5565b806306fdde03146100fa578063095ea7b31461011857806318160ddd14610148575b600080fd5b610102610324565b60405161010f9190610dc5565b60405180910390f35b610132600480360381019061012d9190610e80565b6103b6565b60405161013f9190610edb565b60405180910390f35b6101506103d9565b60405161015d9190610f05565b60405180910390f35b610180600480360381019061017b9190610f20565b6103e3565b60405161018d9190610edb565b60405180910390f35b61019e610412565b6040516101ab9190610f8f565b60405180910390f35b6101ce60048036038101906101c99190610e80565b61041b565b6040516101db9190610edb565b60405180910390f35b6101fe60048036038101906101f99190610faa565b610452565b60405161020b9190610f05565b60405180910390f35b61021c61049a565b005b6102266104ae565b6040516102339190610fe6565b60405180910390f35b6102446104d8565b6040516102519190610dc5565b60405180910390f35b610274600480360381019061026f9190610e80565b61056a565b6040516102819190610edb565b60405180910390f35b6102a4600480360381019061029f9190610e80565b6105e1565b6040516102b19190610edb565b60405180910390f35b6102d460048036038101906102cf9190611001565b610604565b6040516102e19190610f05565b60405180910390f35b6102f261068b565b6040516102ff9190610f05565b60405180910390f35b610322600480360381019061031d9190610faa565b610691565b005b60606003805461033390611070565b80601f016020809104026020016040519081016040528092919081815260200182805461035f90611070565b80156103ac5780601f10610381576101008083540402835291602001916103ac565b820191906000526020600020905b81548152906001019060200180831161038f57829003601f168201915b5050505050905090565b6000806103c1610714565b90506103ce81858561071c565b600191505092915050565b6000600254905090565b6000806103ee610714565b90506103fb8582856108e5565b610406858585610971565b60019150509392505050565b60006012905090565b600080610426610714565b90506104478185856104388589610604565b61044291906110d0565b61071c565b600191505092915050565b60008060008373ffffffffffffffffffffffffffffffffffffffff1673ffffffffffffffffffffffffffffffffffffffff168152602001908152602001600020549050919050565b6104a2610be7565b6104ac6000610c65565b565b6000600560009054906101000a900473ffffffffffffffffffffffffffffffffffffffff16905090565b6060600480546104e790611070565b80601f016020809104026020016040519081016040528092919081815260200182805461051390611070565b80156105605780601f1061053557610100808354040283529160200191610560565b820191906000526020600020905b81548152906001019060200180831161054357829003601f168201915b5050505050905090565b600080610575610714565b905060006105838286610604565b9050838110156105c8576040517f08c379a00000000000000000000000000000000000000000000000000000000081526004016105bf90611176565b60405180910390fd5b6105d5828686840361071c565b60019250505092915050565b6000806105ec610714565b90506105f9818585610971565b600191505092915050565b6000600160008473ffffffffffffffffffffffffffffffffffffffff1673ffffffffffffffffffffffffffffffffffffffff16815260200190815260200160002060008373ffffffffffffffffffffffffffffffffffffffff1673ffffffffffffffffffffffffffffffffffffffff16815260200190815260200160002054905092915050565b60065481565b610699610be7565b600073ffffffffffffffffffffffffffffffffffffffff168173ffffffffffffffffffffffffffffffffffffffff1603610708576040517f08c379a00000000000000000000000000000000000000000000000000000000081526004016106ff90611208565b60405180910390fd5b61071181610c65565b50565b600033905090565b600073ffffffffffffffffffffffffffffffffffffffff168373ffffffffffffffffffffffffffffffffffffffff160361078b576040517f08c379a00000000000000000000000000000000000000000000000000000000081526004016107829061129a565b60405180910390fd5b600073ffffffffffffffffffffffffffffffffffffffff168273ffffffffffffffffffffffffffffffffffffffff16036107fa576040517f08c379a00000000000000000000000000000000000000000000000000000000081526004016107f19061132c565b60405180910390fd5b80600160008573ffffffffffffffffffffffffffffffffffffffff1673ffffffffffffffffffffffffffffffffffffffff16815260200190815260200160002060008473ffffffffffffffffffffffffffffffffffffffff1673ffffffffffffffffffffffffffffffffffffffff168152602001908152602001600020819055508173ffffffffffffffffffffffffffffffffffffffff168373ffffffffffffffffffffffffffffffffffffffff167f8c5be1e5ebec7d5bd14f71427d1e84f3dd0314c0f7b2291e5b200ac8c7c3b925836040516108d89190610f05565b60405180910390a3505050565b60006108f18484610604565b90507fffffffffffffffffffffffffffffffffffffffffffffffffffffffffffffffff811461096b578181101561095d576040517f08c379a000000000000000000000000000000000000000000000000000000000815260040161095490611398565b60405180910390fd5b61096a848484840361071c565b5b50505050565b600073ffffffffffffffffffffffffffffffffffffffff168373ffffffffffffffffffffffffffffffffffffffff16036109e0576040517f08c379a00000000000000000000000000000000000000000000000000000000081526004016109d79061142a565b60405180910390fd5b600073ffffffffffffffffffffffffffffffffffffffff168273ffffffffffffffffffffffffffffffffffffffff1603610a4f576040517f08c379a0000000000000000000000000000000000000000000000000000000008152600401610a46906114bc565b60405180910390fd5b610a5a838383610d2b565b60008060008573ffffffffffffffffffffffffffffffffffffffff1673ffffffffffffffffffffffffffffffffffffffff16815260200190815260200160002054905081811015610ae0576040517f08c379a0000000000000000000000000000000000000000000000000000000008152600401610ad79061154e565b60405180910390fd5b8181036000808673ffffffffffffffffffffffffffffffffffffffff1673ffffffffffffffffffffffffffffffffffffffff16815260200190815260200160002081905550816000808573ffffffffffffffffffffffffffffffffffffffff1673ffffffffffffffffffffffffffffffffffffffff168152602001908152602001600020600082825401925050819055508273ffffffffffffffffffffffffffffffffffffffff168473ffffffffffffffffffffffffffffffffffffffff167fddf252ad1be2c89b69c2b068fc378daa952ba7f163c4a11628f55a4df523b3ef84604051610bce9190610f05565b60405180910390a3610be1848484610d30565b50505050565b610bef610714565b73ffffffffffffffffffffffffffffffffffffffff16610c0d6104ae565b73ffffffffffffffffffffffffffffffffffffffff1614610c63576040517f08c379a0000000000000000000000000000000000000000000000000000000008152600401610c5a906115ba565b60405180910390fd5b565b6000600560009054906101000a900473ffffffffffffffffffffffffffffffffffffffff16905081600560006101000a81548173ffffffffffffffffffffffffffffffffffffffff021916908373ffffffffffffffffffffffffffffffffffffffff1602179055508173ffffffffffffffffffffffffffffffffffffffff168173ffffffffffffffffffffffffffffffffffffffff167f8be0079c531659141344cd1fd0a4f28419497f9722a3daafe3b4186f6b6457e060405160405180910390a35050565b505050565b505050565b600081519050919050565b600082825260208201905092915050565b60005b83811015610d6f578082015181840152602081019050610d54565b60008484015250505050565b6000601f19601f8301169050919050565b6000610d9782610d35565b610da18185610d40565b9350610db1818560208601610d51565b610dba81610d7b565b840191505092915050565b60006020820190508181036000830152610ddf8184610d8c565b905092915050565b600080fd5b600073ffffffffffffffffffffffffffffffffffffffff82169050919050565b6000610e1782610dec565b9050919050565b610e2781610e0c565b8114610e3257600080fd5b50565b600081359050610e4481610e1e565b92915050565b6000819050919050565b610e5d81610e4a565b8114610e6857600080fd5b50565b600081359050610e7a81610e54565b92915050565b60008060408385031215610e9757610e96610de7565b5b6000610ea585828601610e35565b9250506020610eb685828601610e6b565b9150509250929050565b60008115159050919050565b610ed581610ec0565b82525050565b6000602082019050610ef06000830184610ecc565b92915050565b610eff81610e4a565b82525050565b6000602082019050610f1a6000830184610ef6565b92915050565b600080600060608486031215610f3957610f38610de7565b5b6000610f4786828701610e35565b9350506020610f5886828701610e35565b9250506040610f6986828701610e6b565b9150509250925092565b600060ff82169050919050565b610f8981610f73565b82525050565b6000602082019050610fa46000830184610f80565b92915050565b600060208284031215610fc057610fbf610de7565b5b6000610fce84828501610e35565b91505092915050565b610fe081610e0c565b82525050565b6000602082019050610ffb6000830184610fd7565b92915050565b6000806040838503121561101857611017610de7565b5b600061102685828601610e35565b925050602061103785828601610e35565b9150509250929050565b7f4e487b7100000000000000000000000000000000000000000000000000000000600052602260045260246000fd5b6000600282049050600182168061108857607f821691505b60208210810361109b5761109a611041565b5b50919050565b7f4e487b7100000000000000000000000000000000000000000000000000000000600052601160045260246000fd5b60006110db82610e4a565b91506110e683610e4a565b92508282019050808211156110fe576110fd6110a1565b5b92915050565b7f45524332303a2064656372656173656420616c6c6f77616e63652062656c6f7760008201527f207a65726f000000000000000000000000000000000000000000000000000000602082015250565b6000611160602583610d40565b915061116b82611104565b604082019050919050565b6000602082019050818103600083015261118f81611153565b9050919050565b7f4f776e61626c653a206e6577206f776e657220697320746865207a65726f206160008201527f6464726573730000000000000000000000000000000000000000000000000000602082015250565b60006111f2602683610d40565b91506111fd82611196565b604082019050919050565b60006020820190508181036000830152611221816111e5565b9050919050565b7f45524332303a20617070726f76652066726f6d20746865207a65726f2061646460008201527f7265737300000000000000000000000000000000000000000000000000000000602082015250565b6000611284602483610d40565b915061128f82611228565b604082019050919050565b600060208201905081810360008301526112b381611277565b9050919050565b7f45524332303a20617070726f766520746f20746865207a65726f20616464726560008201527f7373000000000000000000000000000000000000000000000000000000000000602082015250565b6000611316602283610d40565b9150611321826112ba565b604082019050919050565b6000602082019050818103600083015261134581611309565b9050919050565b7f45524332303a20696e73756666696369656e7420616c6c6f77616e6365000000600082015250565b6000611382601d83610d40565b915061138d8261134c565b602082019050919050565b600060208201905081810360008301526113b181611375565b9050919050565b7f45524332303a207472616e736665722066726f6d20746865207a65726f20616460008201527f6472657373000000000000000000000000000000000000000000000000000000602082015250565b6000611414602583610d40565b915061141f826113b8565b604082019050919050565b6000602082019050818103600083015261144381611407565b9050919050565b7f45524332303a207472616e7366657220746f20746865207a65726f206164647260008201527f6573730000000000000000000000000000000000000000000000000000000000602082015250565b60006114a6602383610d40565b91506114b18261144a565b604082019050919050565b600060208201905081810360008301526114d581611499565b9050919050565b7f45524332303a207472616e7366657220616d6f756e742065786365656473206260008201527f616c616e63650000000000000000000000000000000000000000000000000000602082015250565b6000611538602683610d40565b9150611543826114dc565b604082019050919050565b600060208201905081810360008301526115678161152b565b9050919050565b7f4f776e61626c653a2063616c6c6572206973206e6f7420746865206f776e6572600082015250565b60006115a4602083610d40565b91506115af8261156e565b602082019050919050565b600060208201905081810360008301526115d381611597565b905091905056fea2646970667358221220f685313aa1de3a8ce1a8cec5e40216a930890375140a0a7b061770bdd21d82aa64736f6c63430008140033a26469706673582212207c651fef8bd28cb273d0be3352f9d227fd6e1f3aa46350369a5f11f1d1d54def64736f6c63430008140033",
  "linkReferences": {},
  "deployedLinkReferences": {}
}