{
  "_format": "hh-sol-artifact-1",
  "contractName": "PropertyDeed",
  "sourceName": "contracts/PropertyDeed.sol",
  "abi": [
    {
      "inputs": [],
      "stateMutability": "nonpayable",
      "type": "constructor"
    },
    {
      "anonymous": false,
      "inputs": [
        {
          "indexed": true,
          "internalType": "address",
          "name": "owner",
          "type": "address"
        },
        {
          "indexed": true,
          "internalType": "address",
          "name": "approved",
          "type": "address"
        },
        {
          "indexed": true,
          "internalType": "uint256",
          "name": "tokenId",
          "type": "uint256"
        }
      ],
      "name": "Approval",
      "type": "event"
    },
    {
      "anonymous": false,
      "inputs": [
        {
          "indexed": true,
          "internalType": "address",
          "name": "owner",
          "type": "address"
        },
        {
          "indexed": true,
          "internalType": "address",
          "name": "operator",
          "type": "address"
        },
        {
          "indexed": false,
          "internalType": "bool",
          "name": "approved",
          "type": "bool"
        }
      ],
      "name": "ApprovalForAll",
      "type": "event"
    },
    {
      "anonymous": false,
      "inputs": [
        {
          "indexed": false,
          "internalType": "uint256",
          "name": "_fromTokenId",
          "type": "uint256"
        },
        {
          "indexed": false,
          "internalType": "uint256",
          "name": "_toTokenId",
          "type": "uint256"
        }
      ],
      "name": "BatchMetadataUpdate",
      "type": "event"
    },
    {
      "anonymous": false,
      "inputs": [
        {
          "indexed": false,
          "internalType": "uint256",
          "name": "_tokenId",
          "type": "uint256"
        }
      ],
      "name": "MetadataUpdate",
      "type": "event"
    },
    {
      "anonymous": false,
      "inputs": [
        {
          "indexed": true,
          "internalType": "address",
          "name": "previousOwner",
          "type": "address"
        },
        {
          "indexed": true,
          "internalType": "address",
          "name": "newOwner",
          "type": "address"
        }
      ],
      "name": "OwnershipTransferred",
      "type": "event"
    },
    {
      "anonymous": false,
      "inputs": [
        {
          "indexed": true,
          "internalType": "address",
          "name": "from",
          "type": "address"
        },
        {
          "indexed": true,
          "internalType": "address",
          "name": "to",
          "type": "address"
        },
        {
          "indexed": true,
          "internalType": "uint256",
          "name": "tokenId",
          "type": "uint256"
        }
      ],
      "name": "Transfer",
      "type": "event"
    },
    {
      "inputs": [
        {
          "internalType": "address",
          "name": "to",
          "type": "address"
        },
        {
          "internalType": "uint256",
          "name": "tokenId",
          "type": "uint256"
        }
      ],
      "name": "approve",
      "outputs": [],
      "stateMutability": "nonpayable",
      "type": "function"
    },
    {
      "inputs": [
        {
          "internalType": "address",
          "name": "owner",
          "type": "address"
        }
      ],
      "name": "balanceOf",
      "outputs": [
        {
          "internalType": "uint256",
          "name": "",
          "type": "uint256"
        }
      ],
      "stateMutability": "view",
      "type": "function"
    },
    {
      "inputs": [
        {
          "internalType": "uint256",
          "name": "tokenId",
          "type": "uint256"
        }
      ],
      "name": "getApproved",
      "outputs": [
        {
          "internalType": "address",
          "name": "",
          "type": "address"
        }
      ],
      "stateMutability": "view",
      "type": "function"
    },
    {
      "inputs": [
        {
          "internalType": "uint256",
          "name": "tokenId",
          "type": "uint256"
        }
      ],
      "name": "getPropertyURI",
      "outputs": [
        {
          "internalType": "string",
          "name": "",
          "type": "string"
        }
      ],
      "stateMutability": "view",
      "type": "function"
    },
    {
      "inputs": [
        {
          "internalType": "address",
          "name": "owner",
          "type": "address"
        },
        {
          "internalType": "address",
          "name": "operator",
          "type": "address"
        }
      ],
      "name": "isApprovedForAll",
      "outputs": [
        {
          "internalType": "bool",
          "name": "",
          "type": "bool"
        }
      ],
      "stateMutability": "view",
      "type": "function"
    },
    {
      "inputs": [
        {
          "internalType": "address",
          "name": "to",
          "type": "address"
        },
        {
          "internalType": "string",
          "name": "tokenURI_",
          "type": "string"
        }
      ],
      "name": "mintProperty",
      "outputs": [
        {
          "internalType": "uint256",
          "name": "",
          "type": "uint256"
        }
      ],
      "stateMutability": "nonpayable",
      "type": "function"
    },
    {
      "inputs": [],
      "name": "name",
      "outputs": [
        {
          "internalType": "string",
          "name": "",
          "type": "string"
        }
      ],
      "stateMutability": "view",
      "type": "function"
    },
    {
      "inputs": [],
      "name": "owner",
      "outputs": [
        {
          "internalType": "address",
          "name": "",
          "type": "address"
        }
      ],
      "stateMutability": "view",
      "type": "function"
    },
    {
      "inputs": [
        {
          "internalType": "uint256",
          "name": "tokenId",
          "type": "uint256"
        }
      ],
      "name": "ownerOf",
      "outputs": [
        {
          "internalType": "address",
          "name": "",
          "type": "address"
        }
      ],
      "stateMutability": "view",
      "type": "function"
    },
    {
      "inputs": [],
      "name": "renounceOwnership",
      "outputs": [],
      "stateMutability": "nonpayable",
      "type": "function"
    },
    {
      "inputs": [
        {
          "internalType": "address",
          "name": "from",
          "type": "address"
        },
        {
          "internalType": "address",
          "name": "to",
          "type": "address"
        },
        {
          "internalType": "uint256",
          "name": "tokenId",
          "type": "uint256"
        }
      ],
      "name": "safeTransferFrom",
      "outputs": [],
      "stateMutability": "nonpayable",
      "type": "function"
    },
    {
      "inputs": [
        {
          "internalType": "address",
          "name": "from",
          "type": "address"
        },
        {
          "internalType": "address",
          "name": "to",
          "type": "address"
        },
        {
          "internalType": "uint256",
          "name": "tokenId",
          "type": "uint256"
        },
        {
          "internalType": "bytes",
          "name": "data",
          "type": "bytes"
        }
      ],
      "name": "safeTransferFrom",
      "outputs": [],
      "stateMutability": "nonpayable",
      "type": "function"
    },
    {
      "inputs": [
        {
          "internalType": "address",
          "name": "operator",
          "type": "address"
        },
        {
          "internalType": "bool",
          "name": "approved",
          "type": "bool"
        }
      ],
      "name": "setApprovalForAll",
      "outputs": [],
      "stateMutability": "nonpayable",
      "type": "function"
    },
    {
      "inputs": [
        {
          "internalType": "bytes4",
          "name": "interfaceId",
          "type": "bytes4"
        }
      ],
      "name": "supportsInterface",
      "outputs": [
        {
          "internalType": "bool",
          "name": "",
          "type": "bool"
        }
      ],
      "stateMutability": "view",
      "type": "function"
    },
    {
      "inputs": [],
      "name": "symbol",
      "outputs": [
        {
          "internalType": "string",
          "name": "",
          "type": "string"
        }
      ],
      "stateMutability": "view",
      "type": "function"
    },
    {
      "inputs": [
        {
          "internalType": "uint256",
          "name": "tokenId",
          "type": "uint256"
        }
      ],
      "name": "tokenURI",
      "outputs": [
        {
          "internalType": "string",
          "name": "",
          "type": "string"
        }
      ],
      "stateMutability": "view",
      "type": "function"
    },
    {
      "inputs": [
        {
          "internalType": "address",
          "name": "from",
          "type": "address"
        },
        {
          "internalType": "address",
          "name": "to",
          "type": "address"
        },
        {
          "internalType": "uint256",
          "name": "tokenId",
          "type": "uint256"
        }
      ],
      "name": "transferFrom",
      "outputs": [],
      "stateMutability": "nonpayable",
      "type": "function"
    },
    {
      "inputs": [
        {
          "internalType": "address",
          "name": "newOwner",
          "type": "address"
        }
      ],
      "name": "transferOwnership",
      "outputs": [],
      "stateMutability": "nonpayable",
      "type": "function"
    }
  ],
  "bytecode": "0x60806040523480156200001157600080fd5b506040518060400160405280600c81526020017f50726f70657274794465656400000000000000000000000000000000000000008152506040518060400160405280600481526020017f50524f500000000000000000000000000000000000000000000000000000000081525081600090816200008f919062000412565b508060019081620000a1919062000412565b505050620000c4620000b8620000ca60201b60201c565b620000d260201b60201c565b620004f9565b600033905090565b6000600760009054906101000a900473ffffffffffffffffffffffffffffffffffffffff16905081600760006101000a81548173ffffffffffffffffffffffffffffffffffffffff021916908373ffffffffffffffffffffffffffffffffffffffff1602179055508173ffffffffffffffffffffffffffffffffffffffff168173ffffffffffffffffffffffffffffffffffffffff167f8be0079c531659141344cd1fd0a4f28419497f9722a3daafe3b4186f6b6457e060405160405180910390a35050565b600081519050919050565b7f4e487b7100000000000000000000000000000000000000000000000000000000600052604160045260246000fd5b7f4e487b7100000000000000000000000000000000000000000000000000000000600052602260045260246000fd5b600060028204905060018216806200021a57607f821691505b60208210810362000230576200022f620001d2565b5b50919050565b60008190508160005260206000209050919050565b60006020601f8301049050919050565b600082821b905092915050565b6000600883026200029a7fffffffffffffffffffffffffffffffffffffffffffffffffffffffffffffffff826200025b565b620002a686836200025b565b95508019841693508086168417925050509392505050565b6000819050919050565b6000819050919050565b6000620002f3620002ed620002e784620002be565b620002c8565b620002be565b9050919050565b6000819050919050565b6200030f83620002d2565b620003276200031e82620002fa565b84845462000268565b825550505050565b600090565b6200033e6200032f565b6200034b81848462000304565b505050565b5b8181101562000373576200036760008262000334565b60018101905062000351565b5050565b601f821115620003c2576200038c8162000236565b62000397846200024b565b81016020851015620003a7578190505b620003bf620003b6856200024b565b83018262000350565b50505b505050565b600082821c905092915050565b6000620003e760001984600802620003c7565b1980831691505092915050565b6000620004028383620003d4565b9150826002028217905092915050565b6200041d8262000198565b67ffffffffffffffff811115620004395762000438620001a3565b5b62000445825462000201565b6200045282828562000377565b600060209050601f8311600181146200048a576000841562000475578287015190505b620004818582620003f4565b865550620004f1565b601f1984166200049a8662000236565b60005b82811015620004c4578489015182556001820191506020850194506020810190506200049d565b86831015620004e45784890151620004e0601f891682620003d4565b8355505b6001600288020188555050505b505050505050565b612f9980620005096000396000f3fe608060405234801561001057600080fd5b50600436106101165760003560e01c806370a08231116100a2578063a22cb46511610071578063a22cb465146102f3578063b88d4fde1461030f578063c87b56dd1461032b578063e985e9c51461035b578063f2fde38b1461038b57610116565b806370a082311461027d578063715018a6146102ad5780638da5cb5b146102b757806395d89b41146102d557610116565b8063177dc17f116100e9578063177dc17f146101b557806323b872dd146101e557806342842e0e146102015780635c5e30e71461021d5780636352211e1461024d57610116565b806301ffc9a71461011b57806306fdde031461014b578063081812fc14610169578063095ea7b314610199575b600080fd5b61013560048036038101906101309190611cbb565b6103a7565b6040516101429190611d03565b60405180910390f35b610153610408565b6040516101609190611dae565b60405180910390f35b610183600480360381019061017e9190611e06565b61049a565b6040516101909190611e74565b60405180910390f35b6101b360048036038101906101ae9190611ebb565b6104e0565b005b6101cf60048036038101906101ca9190612030565b6105f7565b6040516101dc919061209b565b60405180910390f35b6101ff60048036038101906101fa91906120b6565b610640565b005b61021b600480360381019061021691906120b6565b6106a0565b005b61023760048036038101906102329190611e06565b6106c0565b6040516102449190611dae565b60405180910390f35b61026760048036038101906102629190611e06565b61071a565b6040516102749190611e74565b60405180910390f35b61029760048036038101906102929190612109565b6107a0565b6040516102a4919061209b565b60405180910390f35b6102b5610857565b005b6102bf61086b565b6040516102cc9190611e74565b60405180910390f35b6102dd610895565b6040516102ea9190611dae565b60405180910390f35b61030d60048036038101906103089190612162565b610927565b005b61032960048036038101906103249190612243565b61093d565b005b61034560048036038101906103409190611e06565b61099f565b6040516103529190611dae565b60405180910390f35b610375600480360381019061037091906122c6565b610ab1565b6040516103829190611d03565b60405180910390f35b6103a560048036038101906103a09190612109565b610b45565b005b6000634906490660e01b7bffffffffffffffffffffffffffffffffffffffffffffffffffffffff1916827bffffffffffffffffffffffffffffffffffffffffffffffffffffffff19161480610401575061040082610bc8565b5b9050919050565b60606000805461041790612335565b80601f016020809104026020016040519081016040528092919081815260200182805461044390612335565b80156104905780601f1061046557610100808354040283529160200191610490565b820191906000526020600020905b81548152906001019060200180831161047357829003601f168201915b5050505050905090565b60006104a582610caa565b6004600083815260200190815260200160002060009054906101000a900473ffffffffffffffffffffffffffffffffffffffff169050919050565b60006104eb8261071a565b90508073ffffffffffffffffffffffffffffffffffffffff168373ffffffffffffffffffffffffffffffffffffffff160361055b576040517f08c379a0000000000000000000000000000000000000000000000000000000008152600401610552906123d8565b60405180910390fd5b8073ffffffffffffffffffffffffffffffffffffffff1661057a610cf5565b73ffffffffffffffffffffffffffffffffffffffff1614806105a957506105a8816105a3610cf5565b610ab1565b5b6105e8576040517f08c379a00000000000000000000000000000000000000000000000000000000081526004016105df9061246a565b60405180910390fd5b6105f28383610cfd565b505050565b6000610601610db6565b60016008600082825461061491906124b9565b925050819055506000600854905061062c8482610e34565b6106368184611051565b8091505092915050565b61065161064b610cf5565b826110f5565b610690576040517f08c379a00000000000000000000000000000000000000000000000000000000081526004016106879061255f565b60405180910390fd5b61069b83838361118a565b505050565b6106bb8383836040518060200160405280600081525061093d565b505050565b60606106cb82611483565b61070a576040517f08c379a0000000000000000000000000000000000000000000000000000000008152600401610701906125cb565b60405180910390fd5b6107138261099f565b9050919050565b600080610726836114c4565b9050600073ffffffffffffffffffffffffffffffffffffffff168173ffffffffffffffffffffffffffffffffffffffff1603610797576040517f08c379a000000000000000000000000000000000000000000000000000000000815260040161078e90612637565b60405180910390fd5b80915050919050565b60008073ffffffffffffffffffffffffffffffffffffffff168273ffffffffffffffffffffffffffffffffffffffff1603610810576040517f08c379a0000000000000000000000000000000000000000000000000000000008152600401610807906126c9565b60405180910390fd5b600360008373ffffffffffffffffffffffffffffffffffffffff1673ffffffffffffffffffffffffffffffffffffffff168152602001908152602001600020549050919050565b61085f610db6565b6108696000611501565b565b6000600760009054906101000a900473ffffffffffffffffffffffffffffffffffffffff16905090565b6060600180546108a490612335565b80601f01602080910402602001604051908101604052809291908181526020018280546108d090612335565b801561091d5780601f106108f25761010080835404028352916020019161091d565b820191906000526020600020905b81548152906001019060200180831161090057829003601f168201915b5050505050905090565b610939610932610cf5565b83836115c7565b5050565b61094e610948610cf5565b836110f5565b61098d576040517f08c379a00000000000000000000000000000000000000000000000000000000081526004016109849061255f565b60405180910390fd5b61099984848484611733565b50505050565b60606109aa82610caa565b60006006600084815260200190815260200160002080546109ca90612335565b80601f01602080910402602001604051908101604052809291908181526020018280546109f690612335565b8015610a435780601f10610a1857610100808354040283529160200191610a43565b820191906000526020600020905b815481529060010190602001808311610a2657829003601f168201915b505050505090506000610a5461178f565b90506000815103610a69578192505050610aac565b600082511115610a9e578082604051602001610a86929190612725565b60405160208183030381529060405292505050610aac565b610aa7846117a6565b925050505b919050565b6000600560008473ffffffffffffffffffffffffffffffffffffffff1673ffffffffffffffffffffffffffffffffffffffff16815260200190815260200160002060008373ffffffffffffffffffffffffffffffffffffffff1673ffffffffffffffffffffffffffffffffffffffff16815260200190815260200160002060009054906101000a900460ff16905092915050565b610b4d610db6565b600073ffffffffffffffffffffffffffffffffffffffff168173ffffffffffffffffffffffffffffffffffffffff1603610bbc576040517f08c379a0000000000000000000000000000000000000000000000000000000008152600401610bb3906127bb565b60405180910390fd5b610bc581611501565b50565b60007f80ac58cd000000000000000000000000000000000000000000000000000000007bffffffffffffffffffffffffffffffffffffffffffffffffffffffff1916827bffffffffffffffffffffffffffffffffffffffffffffffffffffffff19161480610c9357507f5b5e139f000000000000000000000000000000000000000000000000000000007bffffffffffffffffffffffffffffffffffffffffffffffffffffffff1916827bffffffffffffffffffffffffffffffffffffffffffffffffffffffff1916145b80610ca35750610ca28261180e565b5b9050919050565b610cb381611483565b610cf2576040517f08c379a0000000000000000000000000000000000000000000000000000000008152600401610ce990612637565b60405180910390fd5b50565b600033905090565b816004600083815260200190815260200160002060006101000a81548173ffffffffffffffffffffffffffffffffffffffff021916908373ffffffffffffffffffffffffffffffffffffffff160217905550808273ffffffffffffffffffffffffffffffffffffffff16610d708361071a565b73ffffffffffffffffffffffffffffffffffffffff167f8c5be1e5ebec7d5bd14f71427d1e84f3dd0314c0f7b2291e5b200ac8c7c3b92560405160405180910390a45050565b610dbe610cf5565b73ffffffffffffffffffffffffffffffffffffffff16610ddc61086b565b73ffffffffffffffffffffffffffffffffffffffff1614610e32576040517f08c379a0000000000000000000000000000000000000000000000000000000008152600401610e2990612827565b60405180910390fd5b565b600073ffffffffffffffffffffffffffffffffffffffff168273ffffffffffffffffffffffffffffffffffffffff1603610ea3576040517f08c379a0000000000000000000000000000000000000000000000000000000008152600401610e9a90612893565b60405180910390fd5b610eac81611483565b15610eec576040517f08c379a0000000000000000000000000000000000000000000000000000000008152600401610ee3906128ff565b60405180910390fd5b610efa600083836001611878565b610f0381611483565b15610f43576040517f08c379a0000000000000000000000000000000000000000000000000000000008152600401610f3a906128ff565b60405180910390fd5b6001600360008473ffffffffffffffffffffffffffffffffffffffff1673ffffffffffffffffffffffffffffffffffffffff16815260200190815260200160002060008282540192505081905550816002600083815260200190815260200160002060006101000a81548173ffffffffffffffffffffffffffffffffffffffff021916908373ffffffffffffffffffffffffffffffffffffffff160217905550808273ffffffffffffffffffffffffffffffffffffffff16600073ffffffffffffffffffffffffffffffffffffffff167fddf252ad1be2c89b69c2b068fc378daa952ba7f163c4a11628f55a4df523b3ef60405160405180910390a461104d60008383600161187e565b5050565b61105a82611483565b611099576040517f08c379a000000000000000000000000000000000000000000000000000000000815260040161109090612991565b60405180910390fd5b806006600084815260200190815260200160002090816110b99190612b5d565b507ff8e1a15aba9398e019f0b49df1a4fde98ee17ae345cb5f6b5e2c27f5033e8ce7826040516110e9919061209b565b60405180910390a15050565b6000806111018361071a565b90508073ffffffffffffffffffffffffffffffffffffffff168473ffffffffffffffffffffffffffffffffffffffff16148061114357506111428185610ab1565b5b8061118157508373ffffffffffffffffffffffffffffffffffffffff166111698461049a565b73ffffffffffffffffffffffffffffffffffffffff16145b91505092915050565b8273ffffffffffffffffffffffffffffffffffffffff166111aa8261071a565b73ffffffffffffffffffffffffffffffffffffffff1614611200576040517f08c379a00000000000000000000000000000000000000000000000000000000081526004016111f790612ca1565b60405180910390fd5b600073ffffffffffffffffffffffffffffffffffffffff168273ffffffffffffffffffffffffffffffffffffffff160361126f576040517f08c379a000000000000000000000000000000000000000000000000000000000815260040161126690612d33565b60405180910390fd5b61127c8383836001611878565b8273ffffffffffffffffffffffffffffffffffffffff1661129c8261071a565b73ffffffffffffffffffffffffffffffffffffffff16146112f2576040517f08c379a00000000000000000000000000000000000000000000000000000000081526004016112e990612ca1565b60405180910390fd5b6004600082815260200190815260200160002060006101000a81549073ffffffffffffffffffffffffffffffffffffffff02191690556001600360008573ffffffffffffffffffffffffffffffffffffffff1673ffffffffffffffffffffffffffffffffffffffff168152602001908152602001600020600082825403925050819055506001600360008473ffffffffffffffffffffffffffffffffffffffff1673ffffffffffffffffffffffffffffffffffffffff16815260200190815260200160002060008282540192505081905550816002600083815260200190815260200160002060006101000a81548173ffffffffffffffffffffffffffffffffffffffff021916908373ffffffffffffffffffffffffffffffffffffffff160217905550808273ffffffffffffffffffffffffffffffffffffffff168473ffffffffffffffffffffffffffffffffffffffff167fddf252ad1be2c89b69c2b068fc378daa952ba7f163c4a11628f55a4df523b3ef60405160405180910390a461147e838383600161187e565b505050565b60008073ffffffffffffffffffffffffffffffffffffffff166114a5836114c4565b73ffffffffffffffffffffffffffffffffffffffff1614159050919050565b60006002600083815260200190815260200160002060009054906101000a900473ffffffffffffffffffffffffffffffffffffffff169050919050565b6000600760009054906101000a900473ffffffffffffffffffffffffffffffffffffffff16905081600760006101000a81548173ffffffffffffffffffffffffffffffffffffffff021916908373ffffffffffffffffffffffffffffffffffffffff1602179055508173ffffffffffffffffffffffffffffffffffffffff168173ffffffffffffffffffffffffffffffffffffffff167f8be0079c531659141344cd1fd0a4f28419497f9722a3daafe3b4186f6b6457e060405160405180910390a35050565b8173ffffffffffffffffffffffffffffffffffffffff168373ffffffffffffffffffffffffffffffffffffffff1603611635576040517f08c379a000000000000000000000000000000000000000000000000000000000815260040161162c90612d9f565b60405180910390fd5b80600560008573ffffffffffffffffffffffffffffffffffffffff1673ffffffffffffffffffffffffffffffffffffffff16815260200190815260200160002060008473ffffffffffffffffffffffffffffffffffffffff1673ffffffffffffffffffffffffffffffffffffffff16815260200190815260200160002060006101000a81548160ff0219169083151502179055508173ffffffffffffffffffffffffffffffffffffffff168373ffffffffffffffffffffffffffffffffffffffff167f17307eab39ab6107e8899845ad3d59bd9653f200f220920489ca2b5937696c31836040516117269190611d03565b60405180910390a3505050565b61173e84848461118a565b61174a84848484611884565b611789576040517f08c379a000000000000000000000000000000000000000000000000000000000815260040161178090612e31565b60405180910390fd5b50505050565b606060405180602001604052806000815250905090565b60606117b182610caa565b60006117bb61178f565b905060008151116117db5760405180602001604052806000815250611806565b806117e584611a0b565b6040516020016117f6929190612725565b6040516020818303038152906040525b915050919050565b60007f01ffc9a7000000000000000000000000000000000000000000000000000000007bffffffffffffffffffffffffffffffffffffffffffffffffffffffff1916827bffffffffffffffffffffffffffffffffffffffffffffffffffffffff1916149050919050565b50505050565b50505050565b60006118a58473ffffffffffffffffffffffffffffffffffffffff16611ad9565b156119fe578373ffffffffffffffffffffffffffffffffffffffff1663150b7a026118ce610cf5565b8786866040518563ffffffff1660e01b81526004016118f09493929190612ea6565b6020604051808303816000875af192505050801561192c57506040513d601f19601f820116820180604052508101906119299190612f07565b60015b6119ae573d806000811461195c576040519150601f19603f3d011682016040523d82523d6000602084013e611961565b606091505b5060008151036119a6576040517f08c379a000000000000000000000000000000000000000000000000000000000815260040161199d90612e31565b60405180910390fd5b805181602001fd5b63150b7a0260e01b7bffffffffffffffffffffffffffffffffffffffffffffffffffffffff1916817bffffffffffffffffffffffffffffffffffffffffffffffffffffffff191614915050611a03565b600190505b949350505050565b606060006001611a1a84611afc565b01905060008167ffffffffffffffff811115611a3957611a38611f05565b5b6040519080825280601f01601f191660200182016040528015611a6b5781602001600182028036833780820191505090505b509050600082602001820190505b600115611ace578080600190039150507f3031323334353637383961626364656600000000000000000000000000000000600a86061a8153600a8581611ac257611ac1612f34565b5b04945060008503611a79575b819350505050919050565b6000808273ffffffffffffffffffffffffffffffffffffffff163b119050919050565b600080600090507a184f03e93ff9f4daa797ed6e38ed64bf6a1f0100000000000000008310611b5a577a184f03e93ff9f4daa797ed6e38ed64bf6a1f0100000000000000008381611b5057611b4f612f34565b5b0492506040810190505b6d04ee2d6d415b85acef81000000008310611b97576d04ee2d6d415b85acef81000000008381611b8d57611b8c612f34565b5b0492506020810190505b662386f26fc100008310611bc657662386f26fc100008381611bbc57611bbb612f34565b5b0492506010810190505b6305f5e1008310611bef576305f5e1008381611be557611be4612f34565b5b0492506008810190505b6127108310611c14576127108381611c0a57611c09612f34565b5b0492506004810190505b60648310611c375760648381611c2d57611c2c612f34565b5b0492506002810190505b600a8310611c46576001810190505b80915050919050565b6000604051905090565b600080fd5b600080fd5b60007fffffffff0000000000000000000000000000000000000000000000000000000082169050919050565b611c9881611c63565b8114611ca357600080fd5b50565b600081359050611cb581611c8f565b92915050565b600060208284031215611cd157611cd0611c59565b5b6000611cdf84828501611ca6565b91505092915050565b60008115159050919050565b611cfd81611ce8565b82525050565b6000602082019050611d186000830184611cf4565b92915050565b600081519050919050565b600082825260208201905092915050565b60005b83811015611d58578082015181840152602081019050611d3d565b60008484015250505050565b6000601f19601f8301169050919050565b6000611d8082611d1e565b611d8a8185611d29565b9350611d9a818560208601611d3a565b611da381611d64565b840191505092915050565b60006020820190508181036000830152611dc88184611d75565b905092915050565b6000819050919050565b611de381611dd0565b8114611dee57600080fd5b50565b600081359050611e0081611dda565b92915050565b600060208284031215611e1c57611e1b611c59565b5b6000611e2a84828501611df1565b91505092915050565b600073ffffffffffffffffffffffffffffffffffffffff82169050919050565b6000611e5e82611e33565b9050919050565b611e6e81611e53565b82525050565b6000602082019050611e896000830184611e65565b92915050565b611e9881611e53565b8114611ea357600080fd5b50565b600081359050611eb581611e8f565b92915050565b60008060408385031215611ed257611ed1611c59565b5b6000611ee085828601611ea6565b9250506020611ef185828601611df1565b9150509250929050565b600080fd5b600080fd5b7f4e487b7100000000000000000000000000000000000000000000000000000000600052604160045260246000fd5b611f3d82611d64565b810181811067ffffffffffffffff82111715611f5c57611f5b611f05565b5b80604052505050565b6000611f6f611c4f565b9050611f7b8282611f34565b919050565b600067ffffffffffffffff821115611f9b57611f9a611f05565b5b611fa482611d64565b9050602081019050919050565b82818337600083830152505050565b6000611fd3611fce84611f80565b611f65565b905082815260208101848484011115611fef57611fee611f00565b5b611ffa848285611fb1565b509392505050565b600082601f83011261201757612016611efb565b5b8135612027848260208601611fc0565b91505092915050565b6000806040838503121561204757612046611c59565b5b600061205585828601611ea6565b925050602083013567ffffffffffffffff81111561207657612075611c5e565b5b61208285828601612002565b9150509250929050565b61209581611dd0565b82525050565b60006020820190506120b0600083018461208c565b92915050565b6000806000606084860312156120cf576120ce611c59565b5b60006120dd86828701611ea6565b93505060206120ee86828701611ea6565b92505060406120ff86828701611df1565b9150509250925092565b60006020828403121561211f5761211e611c59565b5b600061212d84828501611ea6565b91505092915050565b61213f81611ce8565b811461214a57600080fd5b50565b60008135905061215c81612136565b92915050565b6000806040838503121561217957612178611c59565b5b600061218785828601611ea6565b92505060206121988582860161214d565b9150509250929050565b600067ffffffffffffffff8211156121bd576121bc611f05565b5b6121c682611d64565b9050602081019050919050565b60006121e66121e1846121a2565b611f65565b90508281526020810184848401111561220257612201611f00565b5b61220d848285611fb1565b509392505050565b600082601f83011261222a57612229611efb565b5b813561223a8482602086016121d3565b91505092915050565b6000806000806080858703121561225d5761225c611c59565b5b600061226b87828801611ea6565b945050602061227c87828801611ea6565b935050604061228d87828801611df1565b925050606085013567ffffffffffffffff8111156122ae576122ad611c5e565b5b6122ba87828801612215565b91505092959194509250565b600080604083850312156122dd576122dc611c59565b5b60006122eb85828601611ea6565b92505060206122fc85828601611ea6565b9150509250929050565b7f4e487b7100000000000000000000000000000000000000000000000000000000600052602260045260246000fd5b6000600282049050600182168061234d57607f821691505b6020821081036123605761235f612306565b5b50919050565b7f4552433732313a20617070726f76616c20746f2063757272656e74206f776e6560008201527f7200000000000000000000000000000000000000000000000000000000000000602082015250565b60006123c2602183611d29565b91506123cd82612366565b604082019050919050565b600060208201905081810360008301526123f1816123b5565b9050919050565b7f4552433732313a20617070726f76652063616c6c6572206973206e6f7420746f60008201527f6b656e206f776e6572206f7220617070726f76656420666f7220616c6c000000602082015250565b6000612454603d83611d29565b915061245f826123f8565b604082019050919050565b6000602082019050818103600083015261248381612447565b9050919050565b7f4e487b7100000000000000000000000000000000000000000000000000000000600052601160045260246000fd5b60006124c482611dd0565b91506124cf83611dd0565b92508282019050808211156124e7576124e661248a565b5b92915050565b7f4552433732313a2063616c6c6572206973206e6f7420746f6b656e206f776e6560008201527f72206f7220617070726f76656400000000000000000000000000000000000000602082015250565b6000612549602d83611d29565b9150612554826124ed565b604082019050919050565b600060208201905081810360008301526125788161253c565b9050919050565b7f50726f706572747920646f6573206e6f74206578697374000000000000000000600082015250565b60006125b5601783611d29565b91506125c08261257f565b602082019050919050565b600060208201905081810360008301526125e4816125a8565b9050919050565b7f4552433732313a20696e76616c696420746f6b656e2049440000000000000000600082015250565b6000612621601883611d29565b915061262c826125eb565b602082019050919050565b6000602082019050818103600083015261265081612614565b9050919050565b7f4552433732313a2061646472657373207a65726f206973206e6f74206120766160008201527f6c6964206f776e65720000000000000000000000000000000000000000000000602082015250565b60006126b3602983611d29565b91506126be82612657565b604082019050919050565b600060208201905081810360008301526126e2816126a6565b9050919050565b600081905092915050565b60006126ff82611d1e565b61270981856126e9565b9350612719818560208601611d3a565b80840191505092915050565b600061273182856126f4565b915061273d82846126f4565b91508190509392505050565b7f4f776e61626c653a206e6577206f776e657220697320746865207a65726f206160008201527f6464726573730000000000000000000000000000000000000000000000000000602082015250565b60006127a5602683611d29565b91506127b082612749565b604082019050919050565b600060208201905081810360008301526127d481612798565b9050919050565b7f4f776e61626c653a2063616c6c6572206973206e6f7420746865206f776e6572600082015250565b6000612811602083611d29565b915061281c826127db565b602082019050919050565b6000602082019050818103600083015261284081612804565b9050919050565b7f4552433732313a206d696e7420746f20746865207a65726f2061646472657373600082015250565b600061287d602083611d29565b915061288882612847565b602082019050919050565b600060208201905081810360008301526128ac81612870565b9050919050565b7f4552433732313a20746f6b656e20616c7265616479206d696e74656400000000600082015250565b60006128e9601c83611d29565b91506128f4826128b3565b602082019050919050565b60006020820190508181036000830152612918816128dc565b9050919050565b7f45524337323155524953746f726167653a2055524920736574206f66206e6f6e60008201527f6578697374656e7420746f6b656e000000000000000000000000000000000000602082015250565b600061297b602e83611d29565b91506129868261291f565b604082019050919050565b600060208201905081810360008301526129aa8161296e565b9050919050565b60008190508160005260206000209050919050565b60006020601f8301049050919050565b600082821b905092915050565b600060088302612a137fffffffffffffffffffffffffffffffffffffffffffffffffffffffffffffffff826129d6565b612a1d86836129d6565b95508019841693508086168417925050509392505050565b6000819050919050565b6000612a5a612a55612a5084611dd0565b612a35565b611dd0565b9050919050565b6000819050919050565b612a7483612a3f565b612a88612a8082612a61565b8484546129e3565b825550505050565b600090565b612a9d612a90565b612aa8818484612a6b565b505050565b5b81811015612acc57612ac1600082612a95565b600181019050612aae565b5050565b601f821115612b1157612ae2816129b1565b612aeb846129c6565b81016020851015612afa578190505b612b0e612b06856129c6565b830182612aad565b50505b505050565b600082821c905092915050565b6000612b3460001984600802612b16565b1980831691505092915050565b6000612b4d8383612b23565b9150826002028217905092915050565b612b6682611d1e565b67ffffffffffffffff811115612b7f57612b7e611f05565b5b612b898254612335565b612b94828285612ad0565b600060209050601f831160018114612bc75760008415612bb5578287015190505b612bbf8582612b41565b865550612c27565b601f198416612bd5866129b1565b60005b82811015612bfd57848901518255600182019150602085019450602081019050612bd8565b86831015612c1a5784890151612c16601f891682612b23565b8355505b6001600288020188555050505b505050505050565b7f4552433732313a207472616e736665722066726f6d20696e636f72726563742060008201527f6f776e6572000000000000000000000000000000000000000000000000000000602082015250565b6000612c8b602583611d29565b9150612c9682612c2f565b604082019050919050565b60006020820190508181036000830152612cba81612c7e565b9050919050565b7f4552433732313a207472616e7366657220746f20746865207a65726f2061646460008201527f7265737300000000000000000000000000000000000000000000000000000000602082015250565b6000612d1d602483611d29565b9150612d2882612cc1565b604082019050919050565b60006020820190508181036000830152612d4c81612d10565b9050919050565b7f4552433732313a20617070726f766520746f2063616c6c657200000000000000600082015250565b6000612d89601983611d29565b9150612d9482612d53565b602082019050919050565b60006020820190508181036000830152612db881612d7c565b9050919050565b7f4552433732313a207472616e7366657220746f206e6f6e20455243373231526560008201527f63656976657220696d706c656d656e7465720000000000000000000000000000602082015250565b6000612e1b603283611d29565b9150612e2682612dbf565b604082019050919050565b60006020820190508181036000830152612e4a81612e0e565b9050919050565b600081519050919050565b600082825260208201905092915050565b6000612e7882612e51565b612e828185612e5c565b9350612e92818560208601611d3a565b612e9b81611d64565b840191505092915050565b6000608082019050612ebb6000830187611e65565b612ec86020830186611e65565b612ed5604083018561208c565b8181036060830152612ee78184612e6d565b905095945050505050565b600081519050612f0181611c8f565b92915050565b600060208284031215612f1d57612f1c611c59565b5b6000612f2b84828501612ef2565b91505092915050565b7f4e487b7100000000000000000000000000000000000000000000000000000000600052601260045260246000fdfea26469706673582212205ad9018c6f6fc20819b3d9a775f1e66f071c678c46ff32e18229a97a48d2064e64736f6c63430008140033",
  "linkReferences": {},
  "deployedLinkReferences": {}
}